:020000040800F2
:10000000E80A0020DD0100083D0C00080B0900088B
:10001000390C0008270600085113000800000000F2
:10002000000000000000000000000000B90E000801
:100030002907000800000000650D000815100008E1
:10004000F7010008F7010008F7010008F7010008B0
:10005000F7010008F7010008F7010008F7010008A0
:10006000F7010008F7010008F7010008F701000890
:10007000F7010008F7010008F7010008F701000880
:10008000F7010008F7010008F7010008F701000870
:10009000F7010008F7010008F7010008F701000860
:1000A000F7010008F7010008F7010008F701000850
:1000B000F7010008F7010008F7010008F701000840
:1000C000F7010008F7010008F7010008F701000830
:1000D000F701000879100008A1100008711100084C
:1000E000F7010008F7010008F7010008F701000810
:1000F000F7010008F7010008F7010008F701000800
:10010000F7010008F7010008F7010008F7010008EF
:10011000F7010008F7010008F7010008F7010008DF
:10012000F7010008F7010008F7010008F7010008CF
:1001300000F002F800F042F80AA090E8000C8244B7
:100140008344AAF10107DA4501D100F037F8AFF294
:10015000090EBAE80F0013F0010F18BFFB1A43F0A5
:10016000010318471822000038220000103A24BF6B
:1001700078C878C1FAD8520724BF30C830C144BF0C
:1001800004680C607047000000230024002500264E
:10019000103A28BF78C1FBD8520728BF30C148BFEA
:1001A0000B607047642900F09D80632900F0F581A1
:1001B000002070471FB51FBD10B510BD00F0F9F944
:1001C0001146FFF7F7FF01F0EFFB00F017FA03B459
:1001D000FFF7F2FF03BC00F01FFA00000948804758
:1001E00009480047FEE7FEE7FEE7FEE7FEE7FEE719
:1001F000FEE7FEE7FEE7FEE704480549054A064B31
:10020000704700001910000831010008E8040020C0
:10021000E80A0020E8060020E80600200FB41CB51C
:10022000074B06AA7B4469460090059800F093F9B5
:100230000020694600F0A2F91CBC5DF814FB000028
:100240005503000070B5044685690068C10601D5F4
:10025000302600E02026C00707D070BDD4E9012178
:1002600030469047206A401C20626D1EF6D570BD56
:1002700070B5044685690078C00707D170BDD4E920
:10028000012120209047206A401C20626D1EF6D577
:1002900070BD70B50C460546012A05D02878800649
:1002A00000D5EA69002302E0012305E05B1C9342CC
:1002B00002D2E05C0028F9D1A869E618C01AA8614A
:1002C000286A184428622846FFF7BCFF04E0D5E9F5
:1002D000012114F8010B9047B442F8D32846FFF7E8
:1002E000C7FF70BD2DE9F04106460024106875294E
:1002F000314616A510D0AFF30080002802DA404244
:1003000013A507E031688A0701D512A502E0490765
:1003100004D511A5012401E0AFF3008000210A22D9
:1003200006F1240709E0B0FBF2FCB0FBF2F302FB9C
:100330001C00303078541846491C0028F3D123465D
:100340002A463046BDE8F04100F0A7B800000000A2
:100350002D0000002B000000200000002DE9F05FC0
:10036000894604464FF0000ADFF824B1FB44C0F888
:1003700020A02046E168884700287DD0252806D0A7
:10038000D4E901219047206A401C2062F1E7002552
:100390005F462046E16888472028064607DB312E65
:1003A00005D2B81910F8200C08B10543F1E7A807E9
:1003B00001D525F00405C4F81CA00027C4F818A036
:1003C0002A2E09D0304600F0EBFF38B304EB870843
:1003D000303EC8F8186019E059F8041B204604EBB9
:1003E00087029161E1688847012F064618D1E069CC
:1003F000002820DA25F020051DE0D8F8180000EBD1
:10040000800006EB40003038C8F818002046E1684C
:100410008847064600F0C4FF0028EED1012F0AD01D
:100420002E2E08D12046E16888477F1C0646022F01
:1004300045F02005C4DBA069002803DA404245F0FE
:100440000105A061E80701D025F01005A6B1A6F1CD
:100450004100192802D8203645F400654A46314645
:10046000204625604D46FFF79DFE60B1012807D06C
:10047000ED1D25F0070000E007E000F1080978E72E
:1004800005F1040975E730467AE7206ABDE8F09F78
:10049000F81F00007047704770472DE9F0470D4680
:1004A00099469246044600F124080168880604D55E
:1004B000E06921F01001216000E00120A84201DD87
:1004C000471B00E00027A1697A1902EB0900081A0E
:1004D000A0612078C00602D42046FFF7B3FE0026B4
:1004E00008E0D4E901211AF806009047206A401C70
:1004F000761C20624E45F4DB2078C0060AD52046E3
:10050000FFF7A0FE06E0D4E9012130209047206AE1
:10051000401C2062381EA7F10107F4DC07E0D4E993
:10052000012118F805009047206A401C2062281E0F
:10053000A5F10105F3DC2046FFF79AFE20780006BE
:1005400002D50220BDE8F0870120FBE701694A1CC3
:1005500002610878704700B58FB0CDE90131002104
:10056000059105497944CDE9031011466846FFF726
:10057000F5FE0FB000BD0000E5FFFFFF0A6802F8BE
:10058000010B0A60704710B5436913B1AFF30080E7
:1005900001E0FFF77EFE012010BD127800F124017A
:1005A0000A7000224A700122EDE711684FF0FF3215
:1005B000E9E7754600F02CF8AE460500694653465B
:1005C00020F00700854618B020B5FFF715FEBDE8FE
:1005D00020404FF000064FF000074FF000084FF0AA
:1005E000000B21F00701AC46ACE8C009ACE8C0093B
:1005F000ACE8C009ACE8C0098D46704710B50446A8
:10060000AFF300802046BDE81040FFF7E0BD0000DA
:10061000004870478804002001491820ABBEFEE75F
:1006200026000200704700BFFEE7000010B5044638
:10063000012C06D100230BA22A21392000F0E6FF6D
:100640000FE034B900230AA22A21392000F0DEFF8E
:1006500007E0022C05D1002308A22A21392000F04E
:10066000D5FF10BD4348415247494E472E2E2E001C
:100670005354414E444259202020200046495245BF
:10068000202D2D2D2021210010B58EB01948006895
:1006900040F6B831884212D9002317A2162104204F
:1006A00000F0B4FF002317A21521392000F0AEFF9F
:1006B000002317A21E21392000F0A8FF13E00D48E7
:1006C00000686421B0FBF1F0B0FBF1F201FB120411
:1006D000224612A101A8FFF7A1FD002301AA1621BD
:1006E000042000F093FF03480068401C01490860A3
:1006F0000EB010BD080000202D2D2D202020202020
:1007000000000000423A2D2D2E2D2D20423A2D00C2
:10071000463A2D2D2E2D2D20463A2D004E6F2E308F
:10072000312D25303264000070472DE9F04102463A
:1007300000250026002000230024002791F803C094
:100740000CF00F0591F803C00CF0100CBCF1000F79
:1007500003D091F802C04CEA050591F800C0BCF145
:10076000000F31D0146800202BE04FF0010C0CFA80
:1007700000F3B1F800C00CEA03069E4220D18300CA
:100780004FF00F0C0CFA03F7BC4305FA03FC4CEADC
:10079000040491F803C0BCF1280F06D14FF0010CFE
:1007A0000CFA00FCC2F814C00AE091F803C0BCF1D6
:1007B000480F05D14FF0010C0CFA00FCC2F810C034
:1007C000401C0828D1D31460B1F800C0BCF1FF0F61
:1007D00034DD546800202EE000F1080C4FF00108D1
:1007E00008FA0CF3B1F800C00CEA03069E4221D1CE
:1007F00083004FF00F0C0CFA03F7BC4305FA03FC1F
:100800004CEA040491F803C0BCF1280F05D100F1B3
:10081000080C08FA0CF8C2F8148091F803C0BCF177
:10082000480F07D100F1080C4FF0010808FA0CF846
:10083000C2F81080401C0828CED35460BDE8F08177
:10084000016170472DE9FF4F82B0804689460498C8
:10085000A0EB08050598A0EB0906002D02DB01209E
:10086000019003E04FF0FF3001906D42002E02DB5B
:100870000120009003E04FF0FF30009076424FEAF5
:10088000450A4FEA460BB54219DDABEB05040027DC
:1008900012E0494640460F9A00F02DF8002C05DB87
:1008A000A4EB0A04009848441FFA80F95C440198BC
:1008B00040441FFA80F87F1CAF42EADD18E0AAEB43
:1008C0000604002712E0494640460F9A00F013F84C
:1008D000002C05DBA4EB0B04019840441FFA80F8C0
:1008E0005444009848441FFA80F97F1CB742EADD5F
:1008F00006B0BDE8F08F70B504460D461646F2B25C
:10090000E9B2E0B200F086F870BD00BFFEE700007B
:1009100010B50446A078044908706078034908704F
:1009200000F0D0F910BD0000000000200100002000
:1009300010B50446607830384FF47A714843A17896
:10094000303901EBC10202EB011100EB8101E078CB
:10095000303800EB800001EB40012079303808444A
:100960000E490880607930384FF47A714843A17994
:10097000303901EBC10202EB011100EB8101E0799A
:10098000303800EB800001EB4001207A3038084419
:100990000349088000F096F910BD00000200002015
:1009A0000400002070B50446002511E005F1800127
:1009B000C8B200F095F8802000F092F8002604E01C
:1009C000207800F09BF8641C761C102EF8DB6D1C60
:1009D000202DEBDB002511E005F18001C8B200F00D
:1009E0007FF8882000F07CF8002604E0207800F0F2
:1009F00085F8641C761C102EF8DB6D1C202DEBDBBB
:100A000070BD000010B50248FFF7CCFF10BD00001C
:100A10008800002070B514460346C51700EB5575D5
:100A2000ED1005EB0112802801DA402900DB70BDD2
:100A300014B1012C1ED10EE00346C51700EB55750D
:100A4000ED10A0EBC506802535410C4EB65CAE43DB
:100A50000A4DAE540EE00346C51700EB5575ED1078
:100A6000A0EBC50680253541044EB65C3543034EE8
:100A7000B55400BF00BF00BFD9E7000088000020C8
:100A800010B500F0B7FE002003E00021134A115416
:100A9000401CB0F5806FF8DB322000F0ABFC30205A
:100AA00000F01EF8012000F0A5FC0C2000F018F862
:100AB000012000F09FFC012000F012F81E2000F041
:100AC00099FC062000F00CF8342000F009F8FFF73C
:100AD00099FF362000F004F810BD000088000020C7
:100AE00010B50446F82000F0E9F904F0F00000F039
:100AF000E5F92107080E00F0E1F910BD10B5044634
:100B0000FA2000F0DBF904F0F00000F0D7F921073B
:100B1000080E00F0D3F910BD08B501203F237F2255
:100B200000210090084600F04BFD01232BA200217C
:100B3000184600F06BFD01203F237F2235210090F5
:100B4000002000F03DFD00232AA236214F2000F0B6
:100B50005DFD0120332335220A210090022000F0A0
:100B60002FFD002326A20B21042000F04FFD0120C1
:100B70003323352214210090022000F021FD0023B0
:100B800021A21621042000F041FD012033237D2203
:100B90000A210090372000F013FD00231BA20B2137
:100BA000392000F033FD012033237D2214210090F1
:100BB000372000F005FD002316A21521392000F092
:100BC00025FD002316A21E21392000F01FFD002361
:100BD00016A22A21392000F019FD08BD52492D53D3
:100BE000595354454D2056312E30202042593A5AFF
:100BF0004400000020204C6F636B6564000000001F
:100C0000434C49454E5400002D2D2D004F50544962
:100C10004F4E0000423A2D2D2E2D2D20423A2D0010
:100C2000463A2D2D2E2D2D20463A2D005354414E5F
:100C3000444259202020200000BFFEE770470000FA
:100C400070B5002100230F22C47804B3154C24682A
:100C500004F4E064C4F5E064210AC1F10403CA406D
:100C6000447804FA03F184781440214309010E4CBE
:100C70000678A155047804F01F050124AC400578DE
:100C80006D11AD0005F1E025C5F8004109E00478DB
:100C900004F01F050124AC40044D0678761145F898
:100CA000264070BD0CED00E000E400E080E100E0D3
:100CB00002490143024A1160704700000000FA0532
:100CC0000CED00E030B58FB01A480088642190FB2D
:100CD000F1F201FB12041748008890FBF1F5164869
:100CE000007823462A4615A1009002A8FFF796FA3D
:100CF000002302AA1521392000F088FC134800883F
:100D0000642190FBF1F201FB12041048008890FB73
:100D1000F1F50F48007823462A460EA1009002A85C
:100D2000FFF77CFA002302AA1E21392000F06EFC96
:100D30000FB030BD0200002000000020423A2532F2
:100D4000642E2530326420423A25630004000020DE
:100D500001000020463A2532642E253032642046B8
:100D60003A2563007047000029B1064AD269024360
:100D7000044BDA6104E0034AD2698243014BDA6131
:100D8000704700000010024029B1064A92690243F0
:100D9000044B9A6104E0034A92698243014B9A61D1
:100DA000704700000010024030B5002100220024EE
:100DB00000232D4D6D6805F00C0121B1042905D0EB
:100DC000082923D105E0294D056022E0274D056063
:100DD0001FE0254D6D6805F47012234D6D6805F414
:100DE0008034022505EB92421CB9214D5543056024
:100DF0000BE01D4D6D6805F400351DB11C4D5543CC
:100E0000056002E0194D5543056002E0174D05608D
:100E100000BF00BF144D6D6805F0F0010909154DC4
:100E20006B5C0568DD4045600F4D6D6805F4E06161
:100E3000090A104D6B5C4568DD4085600A4D6D68A0
:100E400005F46051C90A0B4D6B5C4568DD40C56017
:100E5000054D6D6805F44041890B074D6B5CC56815
:100E6000B5FBF3F5056130BD0010024000127A00B9
:100E700000093D00420000205200002010B5044649
:100E800094F82000012813D12078412802D0562858
:100E900008D103E02046FFF73BFD03E02046FFF7C3
:100EA00047FD00BF00BF002084F820000149086012
:100EB00010BD0000080000207047000070B5054616
:100EC000002418E005FA04F000F0800018B10120B9
:100ED0000A49086002E0002008490860002007492C
:100EE000091D0860012000F0ABFA01200449C1F897
:100EF000B401601CC4B2082CE4DB70BDB081214297
:100F00000080214210B500F001F810BD0CB50020A2
:100F1000019000903348006840F480303149086007
:100F200000BF3048006800F4003000900198401C79
:100F30000190009818B90198B0F5A06FF1D1294837
:100F4000006800F4003010B10120009001E00020A2
:100F500000900098012843D12348006840F0100019
:100F6000214908600846006820F003000860084630
:100F7000006840F0020008601A484068194948605B
:100F80000846406848600846406840F48060486011
:100F90000846406820F47C1048600846406840F4E9
:100FA000E81048600846006840F08070086000BFA4
:100FB0000C48006800F000700028F9D0094840682B
:100FC00020F00300074948600846406840F00200EE
:100FD000486000BF0348406800F00C000828F9D1C1
:100FE0000CBD00000010024000200240042808D17F
:100FF0004FF0E021096941F004014FF0E022116156
:1010000007E04FF0E021096921F004014FF0E022F0
:10101000116170477047000010B51348006840F038
:1010200001001149086008464068104908400E490F
:101030004860084600680E4908400B4908600846A9
:10104000006820F4802008600846406820F4FE0014
:1010500048604FF41F008860FFF754FF4FF00060B6
:101060000449086010BD0000001002400000FFF8B5
:10107000FFFFF6FE08ED00E010B50748008800F01D
:10108000200038B10448001D0088C4B2034801683C
:101090002046884710BD0000003801407C00002039
:1010A00010B50748008800F0200038B10448001D42
:1010B0000088C4B2034841682046884710BD00003C
:1010C000004400407C00002010B586B00446012199
:1010D0000520FFF759FE01212248FFF745FE0820B1
:1010E000ADF8140048208DF8170005A91E48FFF739
:1010F0001CFB0420ADF8140003208DF81600182006
:101100008DF8170005A91848FFF70FFB26208DF86A
:10111000100003208DF811008DF8120001208DF8C9
:10112000130004A8FFF78CFD00940020ADF8040024
:10113000ADF80600ADF80800ADF80C000C20ADF8D5
:101140000A006946094800F065F8012240F225517D
:10115000064800F03AF80121044800F01DF806B0F6
:1011600010BD0000010002000008014000440040E2
:1011700010B50748008800F0200038B10448001D71
:101180000088C4B2034881682046884710BD00002B
:10119000004800407C00002021B1828942F40052C6
:1011A000828104E082894DF6FF731A408281704784
:1011B00002460020B1F5007F00D100BF13880B402C
:1011C0000BB1012000E000207047F0B50346002479
:1011D00000260025002040F66A17B94200D100BF62
:1011E0001846C1F3421401F01F06012707FA06F55D
:1011F000012C01D10C3004E0022C01D1103000E0B0
:1012000014301AB107682F43076002E00768AF4344
:101210000760F0BD2DE9F04786B005460E46002474
:10122000A24600BFA1460027B08900B100BF2F46EB
:101230002C8A4CF6FF700440F08804432C82AC8961
:101240004EF6F3100440B088318908437189084391
:101250000443AC81AC8A4FF6FF400440B08904439C
:10126000AC8201A8FFF7A0FD1F48874202D1DDF83C
:1012700010A001E0DDF80CA0A88900F4004040B106
:101280000AEBCA0000EB0A1031684900B0FBF1F824
:1012900007E00AEBCA0000EB0A1031688900B0FBD6
:1012A000F1F86420B8FBF0F004012009642101FB8F
:1012B0001089A88900F4004040B1322000EBC90039
:1012C000B0FBF1F000F00700044308E0322000EB2F
:1012D00009106421B0FBF1F000F00F0004432C81F1
:1012E00006B0BDE8F087000000380140084A90428F
:1012F00002D1084A11600AE0074A904202D1054A29
:10130000516004E0054A904201D1024A9160704761
:10131000003801407C0000200044004000480040AC
:10132000C1F308028280704770B505460C460BE099
:1013300000BF40212846FFF73BFF0128F9D114F8F0
:10134000011B2846FFF7ECFF20780028F0D170BD84
:1013500000BFFEE7114991F82010F1B93C2804D1F3
:1013600000210E4A82F8211017E03E2804D1012105
:101370000A4A82F8201010E0084991F82110074A23
:10138000505492F82120511CCA1701EBD26252111D
:10139000A1EB4212014B83F8212070475800002036
:1013A00030380A2801D20120704700207047000021
:1013B00010B56FF00400FFF719FE0A4800680A49EB
:1013C000B0FBF1F0094908700846007800EB4001D5
:1013D000C1EBC0104FF6FF7101EAC000044908805C
:1013E00010BD00002400002000127A003E00002002
:1013F000400000200146114A12884A434FF0E02382
:101400005A6100229A611A46126942F001021A6179
:1014100000BF4FF0E022106900F001021AB100F4A1
:101420008032002AF5D04FF0E022126922F001024A
:101430004FF0E0231A6100229A61704740000020BB
:101440000146114A12784A434FF0E0235A610022C4
:101450009A611A46126942F001021A6100BF4FF008
:10146000E022106900F001021AB100F48032002A73
:10147000F5D04FF0E022126922F001024FF0E02394
:101480001A6100229A6170473E00002003480068FC
:1014900008B9012070470020FCE700003C81214290
:1014A0000348006808B9012070470020FCE70000ED
:1014B000200121420C48006808B9012070470A4801
:1014C000001D006808B90220F8E7074828300068C6
:1014D00008B90320F2E704482C30006808B904205A
:1014E000ECE70020EAE70000008121420146A1F17B
:1014F0002000C0EB0010014A10447047681A000831
:101500002DE9F84F0746884616469946DDE90ABA9E
:10151000002551E0002004464BE0082E0EDD214658
:10152000E31704EB5373DB1032464FEAE67C06EB1D
:101530005C7C4FEAEC0C05FB0C3305E02046E3171E
:1015400004EB537305EBE3030093009B1BF80300CC
:1015500004F00702802111410840A0B9BAF1010F3F
:1015600008D108EB050291B23A1990B20122FFF7B7
:10157000C2F91CE008EB050291B23A1990B20022C0
:10158000FFF7B9F913E0BAF1010F08D108EB050232
:1015900091B23A1990B20022FFF7ADF907E008EBDB
:1015A000050291B23A1990B20122FFF7A4F9601C2A
:1015B0000446B442B1DB6D1C4D45ABDBBDE8F88F92
:1015C0002DE9F84105460E4617469846079C4346C6
:1015D0002A46314628460094FFF734F933463A4606
:1015E000314628460094FFF72DF943462A464146E6
:1015F00038460094FFF726F933463A4641463846C6
:101600000094FFF71FF9BDE8F88100002DE9FE4FB7
:101610000746884614469946BDB2002002901FE056
:1016200014F8016B202E17DBA6F1200000EBC000A0
:101630001FFA80FA0D4800EB0A0B1FFA88F1092304
:1016400006222846CDE900B9FFF75AFFA81D85B24A
:10165000802D01DBBDE8FE8F0298401C80B2029015
:1016600020780028DCD100BFF4E700000820000843
:1016700010B5FFF71FFF012806D0022805D0032868
:1016800004D004282BD102E02AE029E028E03A48DF
:10169000007818BB39480078012817D1002404E0ED
:1016A0000A20FFF7A7FE601CC4B2FFF703FF04285F
:1016B00001D1C82CF4DBFFF7FDFE042805D1002082
:1016C0002E490870012000F0EFF805E001202B49B9
:1016D0000870002000F0E8F800F044F900E000BFD6
:1016E00000BFFFF7E7FE2449087025480068401C4A
:1016F0002349086008460068B0F5967F3AD9002073
:101700000860FFF7C3FE01280FD11C48007860B9BC
:101710001C480068B0F5FA6F07D21BA11C48FFF700
:1017200003FE0120FEF782FF06E01AA11848FFF72A
:10173000FBFD0020FEF77AFF6420FFF75BFEFFF75A
:10174000AFFE01280FD10D48007860B90D48006840
:10175000B0F5FA6F07D211A10D48FFF7E5FD0220A1
:10176000FEF764FF06E00FA10948FFF7DDFD00204A
:10177000FEF75CFF10BD00001800002006000020EE
:101780001C000020080000203C4641453E000000AF
:10179000004400403C4641443E0000003C46464573
:1017A0003E0000003C4646443E00000008B50121D2
:1017B0000420FFF7E9FA01210820FFF7E5FA48F6CF
:1017C0000340ADF8000048208DF8030003208DF899
:1017D000020069460548FEF7A8FF4FF48070ADF897
:1017E000000069460248FEF7A0FF08BD000C01405A
:1017F0000008014008B501210820FFF7C5FA4FF4A1
:101800004050ADF8000010208DF8030003208DF843
:10181000020069460448FEF788FF0120034908607A
:101820000349C1F8B40108BD000C0140B081214258
:101830000080214210B507480068401C0549086037
:1018400008460068642803D900200860FFF7DAF82A
:1018500010BD00001000002008B501211020FFF786
:1018600093FA01210820FFF78FFA4FF40050ADF8EA
:10187000000010208DF8030003208DF80200694657
:101880000748FEF752FF2020ADF8000069460548E2
:10189000FEF74BFF20210348FEF7D2FF08BD0000F2
:1018A00000100140000C014018B12021034A1160D2
:1018B00003E02021014A121F11607047140C0140FF
:1018C00024480088401C2349088023480088098850
:1018D000884201DA012000E0002001014FF40050AD
:1018E00088401E4908611B4800880A2831D1002021
:1018F000184908801A48007880F0010016490988C4
:101900000844154908800846008815490978401A96
:1019100011490880084600880A2801D1012000E00A
:1019200000200F490978084408B1012000E0002098
:101930000B4908700848008808B1012000E0002029
:1019400007490978484308B1012000E00020044914
:10195000087070473A000020380000200010014055
:101960003C00002010B509480078012806D100236A
:1019700007A236214920FFF749FE05E0012307A20F
:1019800036214920FFF742FE10BD0000060000206E
:101990002020204C6F636B656400000021756E4C45
:1019A0006F636B65640000004FF4A060FFF780F97F
:1019B000FFF7FEFC4FF4E130FFF786FB10491148BA
:1019C000FFF794FCFFF748FFFFF7F0FEFFF758F82A
:1019D000FFF7A2F80CA10B48FFF7A6FC0FE0FEF7FB
:1019E00053FE0E48FFF74AFAFFF76AFFFFF722FFA0
:1019F000FFF73EFE00F014F80120FFF7FBFCEEE7D6
:101A0000551300080044004053797374656D2053EA
:101A100074617274206F6B0D0A0000005800002082
:101A200010B50D480068401C0B4908600846006866
:101A3000B0F5C87F03D109A10948FFF775FC064836
:101A40000068B0F5487F06D300200349086005A16F
:101A50000348FFF769FC10BD140000203C493E001C
:101A6000004400403C563E00000000000000000022
:101A7000000000000000000000080808080808082E
:101A8000000018180000002814140A0000000000CC
:101A9000000000000000000028287E2828147E1482
:101AA000141400000000081C2A2A0A0C18282A2AEC
:101AB0001C0808000000222515150A28545452223B
:101AC0000000000000040A0A0A3E151519116E00F4
:101AD00000000606040300000000000000000000F3
:101AE00000402010100808080808101020400000CE
:101AF000020408081010101010080804020000006A
:101B0000000008086B1C1C6B0808000000000000A7
:101B1000000808087F080808000000000000000016
:101B200000000000000000060604030000000000A2
:101B300000007F0000000000000000000000000026
:101B400000000000000606000000402020201010C9
:101B5000080808040402020000000018244242425F
:101B600042424224180000000000080E080808083D
:101B70000808083E00000000003C424240201008D7
:101B800004427E00000000003C42422018204042F7
:101B9000423C00000000001010181412127E1010B9
:101BA0007800000000007E02023A46404042423C7B
:101BB0000000000000382402023A464242423C0043
:101BC000000000007E22221010080808080800000B
:101BD0000000003C4242423C244242423C000000A1
:101BE00000001C224242625C4040241C00000000B5
:101BF0000000000018180000001818000000000085
:101C00000000000800000000000808040000402058
:101C1000100804020408102040000000000000002A
:101C2000007F00007F000000000000000204081098
:101C300020402010080402000000003C42424240C4
:101C400020101000181800000000001C22595555E3
:101C500055552D423C0000000000080814141414CF
:101C60003E22227700000000003F4242221E224214
:101C700042423F00000000007C424101010101415D
:101C8000221C00000000001F224242424242422227
:101C90001F00000000003F4212121E121202423FBB
:101CA00000000000003F4212121E12120202070042
:101CB000000000003C22210101017121221C0000D2
:101CC000000000772222223E2222222277000000FA
:101CD00000003E08080808080808083E0000000048
:101CE000007C101010101010101010110F000000C8
:101CF0007722120A0E0A1212227700000000000753
:101D000002020202020202427F0000000000773657
:101D100036362A2A2A2A2A6B000000000077262657
:101D20002A2A2A3232322700000000001C224141B8
:101D300041414141221C00000000003F4242423E1E
:101D4000020202020700000000001C224141414142
:101D5000414D321C60000000001F2222221E0A1288
:101D600012226700000000007C4242020C30404218
:101D7000423E00000000007F4908080808080808E3
:101D80001C00000000007722222222222222221C94
:101D90000000000000772222221414141408080006
:101DA000000000006B2A2A2A2A361414141400009A
:101DB0000000007722141408081414227700000091
:101DC00000007722221414080808081C00000000F4
:101DD000007C22201010080804447E0000007808CF
:101DE0000808080808080808080878000000020227
:101DF0000404080808101020202040001E101010B5
:101E000010101010101010101E00001824000000F8
:101E100000000000000000000000000000000000C2
:101E2000000000000000007F000608000000000025
:101E3000000000000000000000000000001C22382C
:101E40002422227C00000000000302023A464242A3
:101E500042423E000000000000000038440202023E
:101E6000443800000000006040407C424242426230
:101E7000DC00000000000000003C427E0202423C08
:101E800000000000007048083E08080808083E00EE
:101E9000000000000000007C22221C023C42423C68
:101EA0000000000302023A4642424242E7000000BC
:101EB00000000C0C000E08080808083E0000000096
:101EC0000030300038202020202020221E0000007A
:101ED00003020272120A1612227700000000000E9E
:101EE00008080808080808083E0000000000000074
:101EF000001F2A2A2A2A2A6B000000000000000086
:101F00003B4642424242E700000000000000001849
:101F100024424242241800000000000000003B461A
:101F2000424242423E02070000000000007C424262
:101F30004242625C40E0000000000000774C040474
:101F400004041F00000000000000003C22021C20CE
:101F5000221E00000000000008083E0808080808CB
:101F6000300000000000000000634242424262DC98
:101F70000000000000000000E742242414080800CC
:101F8000000000000000006B2A2A2A14141400002C
:101F90000000000000007624181818246E000000CD
:101FA0000000000000E7422424141808080700007D
:101FB000000000007E22100808447E00000030105F
:101FC0001010101008101010101030000808080829
:101FD0000808080808080808080808000C08080885
:101FE00008081008080808080C008C92620000001D
:101FF000000000000000000000000000ED140008D8
:102000000F000000080000000000000000000000B9
:102010000000202020202000200000505000000060
:10202000000000000050F850F8500000002078A098
:102030007028F0200000C8D02020205898000020F0
:10204000502040A8987000002020200000000000D0
:1020500000204080808040200000201008080810E8
:1020600020000000A870F870A8000000002020F8F0
:1020700020200000000000000020204000000000A0
:1020800000700000000000000000000000200000C0
:10209000101020202040400000708888A888887098
:1020A00000002060202020207000007088087080D0
:1020B00080F80000708808300888700000103050E8
:1020C00090F810100000F08080F008887000003058
:1020D0004080B0C888700000F80810204080800060
:1020E00000708888708888700000708888780888F8
:1020F0007000000030300030300000000030300050
:1021000030306000001020408040201000000000AF
:10211000F800F800000000402010081020400000E7
:102120007088081020002000007088B8A8B8807857
:10213000000070888888F888880000F08888F08817
:1021400088F00000708880808088700000F08888A7
:10215000888888F00000F88080F08080F80000F81F
:102160008080F08080800000708880B8888870004F
:1021700000888888F8888888000070202020202027
:102180007000000808080888887000008890A0C0C7
:10219000A090880000808080808080F8000088D82F
:1021A000A888888888000088C8A89888888800003F
:1021B000708888888888700000F08888F080808027
:1021C000000070888888A890680000F08888F0A0D7
:1021D00090880000708880700888700000F82020C7
:1021E0002020202000008888888888887000008847
:1021F000888888885020000088888888A8A870006F
:1022000000888850205088880000888888502020C6
:10221000200000F80810204080F800007040404086
:10222000404070000040402020201010000070103E
:1022300010101010700000205080000000000000FE
:10224000000000000000F800002020100000000046
:102250000000000070087898680000008080F08816
:1022600088F0000000007880808078000000080876
:1022700078888878000000007088F0807000003056
:1022800040406040404000000000788878087000BE
:10229000008080B0C888888800002000602020204E
:1022A000700000100030101090600000808890A036
:1022B000E0908800006020202020207000000000B6
:1022C000D0A8A8A8A800000000D0C888888800006E
:1022D0000000708888887000000000E09090E08026
:1022E00080000000709090701010000000D06040DE
:1022F00040E00000000070806010E00000004040FE
:10230000F040502000000000888888986800000095
:1023100000888888502000000000A8A8A8A85000C5
:10232000000000D8502050D800000000909070109D
:102330009060000000F0204080F00000102020405D
:10234000202010000020202020202020000020102D
:1023500010081010200000000040A810000000002D
:102360000000000000000000040000080000000061
:102370000000000200010000100000009C23000883
:1023800000000020580000006C010008F423000841
:1023900058000020900A0000880100082D2D000040
:1023A00000000100A00F000000000000000000007D
:1023B000000000000000000000000000000000001D
:1023C00000A24A0400000000000000000102030413
:1023D00006070809000000000000000000000000DF
:1023E00000000102030401020304060708090204B5
:0423F00006080000DB
:0400000508000131BD
:00000001FF
