:020000040800F2
:10000000C8060020CD010008710700086907000834
:100010006D07000845060008AD0D0008000000004F
:10002000000000000000000000000000650900085A
:100030004906000800000000F9070008790A0008D6
:10004000E7010008E7010008E7010008E7010008F0
:10005000E7010008E7010008E7010008E7010008E0
:10006000E7010008E7010008E7010008E7010008D0
:10007000E7010008E7010008E7010008E7010008C0
:10008000E7010008E7010008E7010008E7010008B0
:10009000E7010008E7010008E7010008E7010008A0
:1000A000E7010008E7010008E7010008E701000890
:1000B000E7010008E7010008E7010008E701000880
:1000C000E7010008E7010008E7010008E701000870
:1000D000E7010008DD0A0008A50B0008CD0B0008A9
:1000E000E7010008E7010008E7010008E701000850
:1000F000E7010008E7010008E7010008E701000840
:10010000E7010008E7010008E7010008E70100082F
:10011000E7010008E7010008E7010008E70100081F
:10012000E7010008E7010008E7010008E70100080F
:1001300000F002F800F03AF80AA090E8000C8244BF
:100140008344AAF10107DA4501D100F02FF8AFF29C
:10015000090EBAE80F0013F0010F18BFFB1A43F0A5
:10016000010318474819000068190000103A24BF1D
:1001700078C878C1FAD8520724BF30C830C144BF0C
:1001800004680C607047000000230024002500264E
:10019000103A28BF78C1FBD8520728BF30C148BFEA
:1001A0000B6070471FB51FBD10B510BD00F031F8D2
:1001B0001146FFF7F7FF00F0D1FF00F04FF803B44E
:1001C000FFF7F2FF03BC00F057F800000948804732
:1001D00009480047FEE7FEE7FEE7FEE7FEE7FEE729
:1001E000FEE7FEE7FEE7FEE704480549054A064B41
:1001F000704700007D0A000831010008C800002097
:10020000C8060020C8020020C802002070477047BE
:100210007047754600F02CF8AE4605006946534617
:1002200020F00700854618B020B5FFF7DDFFBDE8D8
:1002300020404FF000064FF000074FF000084FF04D
:10024000000B21F00701AC46ACE8C009ACE8C009DE
:10025000ACE8C009ACE8C0098D46704710B504464B
:10026000AFF300802046BDE81040FFF7A8BF0000B4
:10027000004870476400002001491820ABBEFEE72B
:1002800026000200704721B1826842F001028260BC
:1002900003E0826822F001028260704710B50446D4
:1002A0001248844208D10121401500F0C3FA002110
:1002B000601500F0BFFA17E00D48844208D1012113
:1002C000001500F0B7FA0021201500F0B3FA0BE09A
:1002D0000848844208D10121C80300F0ABFA00218C
:1002E0004FF4004000F0A6FA10BD000000240140C9
:1002F00000280140003C0140014600208A6802F0CD
:1003000004020AB1012000E0002070470146C86CD9
:1003100080B270470246002013680B400BB10120E9
:1003200000E000207047014600208A6802F00802C1
:100330000AB1012000E000207047000030B50246FD
:100340000020002350680F4C20400D790C6844EACF
:1003500005242043506090680B4C2040D1E90254A2
:100360002C434D7944EA450420439060D06A20F440
:1003700070000C7C641EE4B2234340EA0350D06258
:1003800030BD0000FFFEF0FFFDF7F1FF00B587B0C4
:1003900001214FF4017000F03DFA4FF4004000F0ED
:1003A0002DFA0320ADF8040000208DF8070001A904
:1003B000174800F04AF91748FFF770FF0020029035
:1003C0008DF80C008DF80D004FF460200490002093
:1003D000059001208DF8180002A90E48FFF7AEFF26
:1003E00001210C48FFF74FFF0A4800F071F800BFE9
:1003F0000848FFF798FF0028FAD1064800F078F87F
:1004000000BF0448FFF778FF0028FAD107B000BD0D
:100410000008014000240140F0B504460D460020CC
:100420000021092D11DDE068A5F10A0606EB46075B
:10043000072606FA07F18843A5F10A0606EB4606E9
:1004400003FA06F10843E0600CE0206905EB45077C
:10045000072606FA07F1884305EB450603FA06F17D
:1004600008432061072A0FDA606B561E06EB8607E9
:100470001F2606FA07F18843561E06EB860605FA84
:1004800006F10843606322E00D2A0FDA206BD61FC5
:1004900006EB86071F2606FA07F18843D61F06EBF0
:1004A000860605FA06F10843206310E0E06AA2F12F
:1004B0000D0606EB86071F2606FA07F18843A2F110
:1004C0000D0606EB860605FA06F10843E062F0BD6C
:1004D000816841F008018160704721B1826842F46F
:1004E000A002826003E0826822F4A002826070476A
:1004F000816841F00401816070470000F0B58DB063
:1005000007463C208DF8000056208DF801000020A1
:1005100000F096FC04464849204601F019F90646C9
:1005200001F0D8F9C0B20A2190FBF1F201FB1200F0
:100530003030C0B28DF80200204601F0CBF9C0B2D5
:100540000A2190FBF1F201FB12003030C0B28DF8AD
:1005500003003949204601F0DDF9064601F0BAF9F9
:10056000C0B20A2190FBF1F201FB12003030C0B2A0
:100570008DF804003149204601F0CCF9064601F01F
:10058000A9F9C0B20A2190FBF1F201FB1200303050
:10059000C0B28DF80500012000F052FC0546264946
:1005A000284601F0D5F8064601F094F9C0B20A21B8
:1005B00090FBF1F201FB12003030C0B28DF8060062
:1005C000284601F087F9C0B20A2190FBF1F201FB45
:1005D00012003030C0B28DF807001749284601F0EC
:1005E00099F9064601F076F9C0B20A2190FBF1F2C2
:1005F00001FB12003030C0B28DF808000F492846C8
:1006000001F088F9064601F065F9C0B20A2190FBB5
:10061000F1F201FB12003030C0B28DF809003E202B
:100620008DF80A0000208DF80B006946044800F0A0
:10063000A9FB0DB0F0BD0000000020410000C84241
:100640000038014000BFFEE770472DE9F041024647
:1006500000250026002000230024002791F803C075
:100660000CF00F0591F803C00CF0100CBCF1000F5A
:1006700003D091F802C04CEA050591F800C0BCF126
:10068000000F31D0146800202BE04FF0010C0CFA61
:1006900000F3B1F800C00CEA03069E4220D18300AB
:1006A0004FF00F0C0CFA03F7BC4305FA03FC4CEABD
:1006B000040491F803C0BCF1280F06D14FF0010CDF
:1006C0000CFA00FCC2F814C00AE091F803C0BCF1B7
:1006D000480F05D14FF0010C0CFA00FCC2F810C015
:1006E000401C0828D1D31460B1F800C0BCF1FF0F42
:1006F00034DD546800202EE000F1080C4FF00108B2
:1007000008FA0CF3B1F800C00CEA03069E4221D1AE
:1007100083004FF00F0C0CFA03F7BC4305FA03FCFF
:100720004CEA040491F803C0BCF1280F05D100F194
:10073000080C08FA0CF8C2F8148091F803C0BCF158
:10074000480F07D100F1080C4FF0010808FA0CF827
:10075000C2F81080401C0828CED35460BDE8F08158
:10076000416170470161704700BFFEE700BFFEE7CF
:100770007047000070B5002100230F22C47804B335
:10078000154C246804F4E064C4F5E064210AC1F166
:100790000403CA40447804FA03F1847814402143E6
:1007A00009010E4C0678A155047804F01F050124B8
:1007B000AC4005786D11AD0005F1E025C5F80041AC
:1007C00009E0047804F01F050124AC40044D0678CC
:1007D000761145F8264070BD0CED00E000E400E025
:1007E00080E100E002490143024A116070470000C5
:1007F0000000FA050CED00E0704700000146002003
:10080000034A506820F4404008435060704700009D
:100810000010024029B1064A92690243044B9A61D2
:1008200004E0034A92698243014B9A6170470000D9
:100830000010024029B1064AD2680243044BDA6034
:1008400004E0034AD2688243014BDA60704700003B
:100850000010024030B500210022002400232D4D5D
:100860006D6805F00C0121B1042905D0082923D1B8
:1008700005E0294D056022E0274D05601FE0254D6C
:100880006D6805F47012234D6D6805F480340225FF
:1008900005EB92421CB9214D554305600BE01D4DFF
:1008A0006D6805F400351DB11C4D5543056002E02F
:1008B000194D5543056002E0174D056000BF00BFAC
:1008C000144D6D6805F0F0010909154D6B5C056864
:1008D000DD4045600F4D6D6805F4E061090A104D7B
:1008E0006B5C4568DD4085600A4D6D6805F46051BC
:1008F000C90A0B4D6B5C4568DD40C560054D6D68F0
:1009000005F44041890B074D6B5CC568B5FBF3F5F9
:10091000056130BD0010024000127A0000093D0060
:10092000200000203000002010B5044694F820007C
:10093000012816D1207846280BD0492802D0562805
:100940000BD102E000F05AFB07E02046FFF7D6FD8E
:1009500003E0204600F006FB00BF00BF002084F843
:10096000200010BD704710B500F002F810BD000067
:100970000CB50020019000903348006840F48030AE
:100980003149086000BF3048006800F40030009032
:100990000198401C0190009818B90198B0F5A06F1B
:1009A000F1D12948006800F4003010B10120009016
:1009B00001E0002000900098012843D123480068FE
:1009C00040F01000214908600846006820F003004C
:1009D00008600846006840F0020008601A48406855
:1009E000194948600846406848600846406840F435
:1009F000806048600846406820F47C1048600846E3
:100A0000406840F4E81048600846006840F0807094
:100A1000086000BF0C48006800F000700028F9D0A2
:100A20000948406820F003000749486008464068CC
:100A300040F00200486000BF0348406800F00C002E
:100A40000828F9D10CBD000000100240002002402F
:100A5000042808D14FF0E021096941F004014FF06A
:100A6000E022116107E04FF0E021096921F0040163
:100A70004FF0E022116170477047000010B5134835
:100A8000006840F0010011490860084640681049BC
:100A900008400E494860084600680E4908400B4966
:100AA00008600846006820F4802008600846406816
:100AB00020F4FE0048604FF41F008860FFF753FFEA
:100AC0004FF000600449086010BD000000100240B3
:100AD0000000FFF8FFFFF6FE08ED00E010B5074844
:100AE000008800F0200038B10448001D0088C4B21E
:100AF000034801682046884710BD000000380140C7
:100B00005800002010B586B00446012144F20400CC
:100B1000FFF780FE4FF40070ADF8140003208DF84D
:100B2000160018208DF8170005A91C48FFF78DFD49
:100B30004FF48060ADF8140004208DF8170005A96B
:100B40001648FFF782FD25208DF8000000208DF863
:100B500001008DF8020001208DF803006846FFF7C0
:100B600009FE01940020ADF80800ADF80A00ADF8C8
:100B70000C00ADF810000C20ADF80E0001A90848DB
:100B800000F076F8012240F22551054800F04BF8BC
:100B90000121034800F02EF806B010BD0008014006
:100BA0000038014010B50748008800F0200038B137
:100BB0000448001D0088C4B20348416820468847A5
:100BC00010BD0000004400405800002010B5074848
:100BD000008800F0200038B10448001D0088C4B22D
:100BE000034881682046884710BD00000048004047
:100BF0005800002021B1828942F40052828104E031
:100C000082894DF6FF731A408281704702460020A8
:100C1000B1F5007F00D100BF13880B400BB101205C
:100C200000E000207047F0B50346002400260025B0
:100C3000002040F66A17B94200D100BF1846C1F340
:100C4000421401F01F06012707FA06F5012C01D115
:100C50000C3004E0022C01D1103000E014301AB145
:100C600007682F43076002E00768AF430760F0BDE5
:100C70002DE9F04786B005460E460024A24600BF87
:100C8000A1460027B08900B100BF2F462C8A4CF640
:100C9000FF700440F08804432C82AC894EF6F310B8
:100CA0000440B08831890843718908430443AC810A
:100CB000AC8A4FF6FF400440B0890443AC8201A8DF
:100CC000FFF7C8FD1F48874202D1DDF810A001E000
:100CD000DDF80CA0A88900F4004040B10AEBCA007E
:100CE00000EB0A1031684900B0FBF1F807E00AEBAD
:100CF000CA0000EB0A1031688900B0FBF1F86420EB
:100D0000B8FBF0F004012009642101FB1089A889D7
:100D100000F4004040B1322000EBC900B0FBF1F01C
:100D200000F00700044308E0322000EB09106421C2
:100D3000B0FBF1F000F00F0004432C8106B0BDE8D9
:100D4000F087000000380140084A904202D1084A6A
:100D500011600AE0074A904202D1054A516004E05E
:100D6000054A904201D1024A916070470038014023
:100D7000580000200044004000480040C1F3080231
:100D80008280704770B505460C460BE000BF4021DD
:100D90002846FFF73BFF0128F9D114F8011B28462C
:100DA000FFF7ECFF20780028F0D170BD00BFFEE710
:100DB000114991F82010F1B93C2804D100210E4AC4
:100DC00082F8211017E03E2804D101210A4A82F856
:100DD000201010E0084991F82110074A505492F869
:100DE0002120511CCA1701EBD2625211A1EB421211
:100DF000014B83F8212070473400002010B56FF0BC
:100E00000400FFF725FE0A4800680A49B0FBF1F02C
:100E1000094908700846007800EB4001C1EBC0109A
:100E20004FF6FF7101EAC0000449088010BD0000C0
:100E30000800002000127A001C0000201E00002084
:100E40002DE9F84F8246BAF1000F03D0BAF1010F35
:100E50005BD12DE0002000F06BF80090009800F0CE
:100E600039FB06464FF06632294B00F047FB8046BF
:100E70000022284B00F0D6F9044600F0A1F9834681
:100E80002549584600F046FD0446244900F060FC20
:100E90008346584600F030FC06460022204B00F006
:100EA0002DFB044600F08CF983465846BDE8F88FC8
:100EB000012000F03DF80090009800F00BFB804608
:100EC0004FF06632124B00F019FB06460022114B20
:100ED00000F0A8F9044600F073F98346114958461A
:100EE00000F018FD04460D4900F032FC83465846D8
:100EF00000F002FC06460C4A0C4B00F0FFFA0446D8
:100F000000F05EF983465846D0E700BF0020CDE7E9
:100F100066660A400000B0400018764600803B44F8
:100F20000000F03F00A00C45A1E52FE35C79F03F05
:100F300010B504460723012221460948FFF76CFA41
:100F400001210748FFF7C9FA00BF02210448FFF753
:100F5000E1F90028F9D00248FFF7D8F910BD0000E8
:100F60000024014010B50446607841280CD1A078D7
:100F7000452803D101200E49087005E0A0784428D7
:100F800002D100200A490870607846280CD1A07868
:100F9000452803D101200749087005E0A0784428BE
:100FA00002D100200349087000F028F810BD0000AD
:100FB000000000200100002010B50D480078012835
:100FC00004D180210B48FFF7CDFB03E080210948C5
:100FD000FFF7C6FB08480078012804D140210548E6
:100FE000FFF7C0FB03E040210248FFF7B9FB10BD4B
:100FF00000000020000801400100002000B58DB075
:101000003C208DF8000041208DF801000E4800784A
:10101000012801D1452000E044208DF802000B4852
:101020000078012801D1452000E044208DF803001C
:101030003E208DF8040000208DF805006946044824
:10104000FFF7A0FE0DB000BD000000200100002051
:101050000038014008B501210420FFF7DBFBC02068
:10106000ADF8000010208DF8030003208DF8020079
:1010700069460448FFF7E9FAC0210248FFF770FB10
:1010800008BD00000008014008B501211020FFF74D
:10109000C1FB4FF40050ADF8000010208DF80300A4
:1010A00003208DF8020069460148FFF7CEFA08BD1B
:1010B0000010014025480088401C2449088024482D
:1010C00000880988884201DA012000E0002001013F
:1010D0004FF4005088401F4908611C480088B0F553
:1010E000967F32D10020194908801B48007880F093
:1010F00001001749098808441549088008460088F6
:1011000015490978401A1249088008460088B0F548
:10111000967F01D1012000E000200F4909780844A2
:1011200008B1012000E000200B4908700848008841
:1011300008B1012000E0002007490978484308B1C0
:10114000012000E0002004490870704704000020DE
:101150000200002000100140060000204FF4A060B3
:10116000FFF740FBFFF74AFE4FF4E130FFF7CAFC00
:101170000B490C48FFF7E8FDFFF786FFFFF706F97C
:10118000FFF768FF08A10748FFF7FCFD06E00B48E2
:10119000FFF7CAFBFFF78EFFFFF70EFFF7E7000030
:1011A000B10D00080038014053797374656D205308
:1011B00074617274206F6B0D0A000000340000200F
:1011C00021F00042A2F16052B2F5801F01F000430D
:1011D00028BFD2F17F6C0BD95FEA001C43EAC20240
:1011E00042EB507018BF704728BF20F001007047D5
:1011F000B2F5801FBCBF184670474FEA410C1CF582
:10120000001F02D2084600F04CBC70B500F020FA76
:1012100000000089FFF7F6BF4FF00040A0F5800006
:10122000704700002DE9C04130B4DFF8A0C23CEAAD
:10123000111418BF3CEA131400F0EC8081EA030596
:101240001CEA111444EAD57418BF1CEA131500F007
:10125000C780A4EB05044FF0004545EAC12145EAEB
:10126000C32341EA505143EA525304F17F74994237
:1012700004F500344FEAC0204FEAC22208BF904272
:1012800000F09C804FEA13650FF24016765D4FEA3E
:10129000134506FB05F7C7F1807706FB07F74FEA12
:1012A000D737A7FB03687642C8F58038A7FB06CE80
:1012B00038BFA8F1010807FB08E64FF0000EA6FBB7
:1012C000028CE6FB03CEDCF1000CCEF1004E38BF01
:1012D000AEF1010EA6FB0C584FF000074FF00005D1
:1012E000E6FB0E87A1FB08C6A0FB07CE16EB0E0699
:1012F00045F10005E1FB076515F1E04E7EBFA4F561
:1013000080345FEA46066D4116F1800745F100051D
:101310004FEA17274FEA066647EA0567A6F1DE4659
:10132000B6F1805F4FEA15251FD9384624F0010C2D
:1013300005EBC471BCF1FE6F01EB0C1102D8F0BCDF
:10134000BDE8008124425CBF01F5801E9EEAC47F97
:1013500002D4F0BCBDE80081244238D4F0BCA1F135
:10136000C041BDE8004100F0C1B94FEAD22242EAD3
:1013700043524FEAD323A7FB02864FEAD02040EA2C
:10138000415007FB03661EEA0E0F4FEAD12105FB11
:10139000026658BFA6EB0056B6EB00564FEA520E57
:1013A0004EEAC37E18EB0E0E56EB530EBDD518EB6E
:1013B00002085E417F1C55F10005B6E74FF4801529
:1013C0004FF000074FF000064FF00008ADE7F0BC0B
:1013D0004FF0000001F1C04101F00041BDE8008183
:1013E00011EA0C1F0CEA131500D00CE013EA0C1FD5
:1013F00000F025804FF00000F0BC81EA030101F00D
:101400000041BDE80081F0BCBDE8004181EA030174
:1014100000F06CB9F0BCBDE8004170B500F018F9FF
:10142000097EFC3E00F007B881EA03014FF000009E
:1014300001F00041704781EA030100F057B9F0BCA8
:10144000BDE800414FF0000021497047FFFDFBF966
:10145000F7F5F4F2F0EEEDEBE9E8E6E4E3E1E0DEE7
:10146000DDDBDAD8D7D5D4D3D1D0CFCDCCCBCAC859
:10147000C7C6C5C4C2C1C0BFBEBDBCBBBAB9B8B780
:10148000B6B5B4B3B2B1B0AFAEADACABAAA9A8A873
:10149000A7A6A5A4A3A3A2A1A09F9F9E9D9C9C9B41
:1014A0009A999998979796959594939392919190EC
:1014B0008F8F8E8E8D8C8C8B8B8A8989888887877D
:1014C0008685858484838382828181800000FF07F2
:1014D0000000F87FB0FA80F310FA03F10AD0C3F1EC
:1014E0001D0303F580634FEA41504FEA035202EBBC
:1014F000D12170474FF0000070470000DFF848C16D
:1015000070B51CEA111E1EBF1CEA13159EEA0C0FD3
:1015100095EA0C0F00F06F8081EA030423EA4C1374
:101520004EEAD47E21EA4C1141F4801143F4801339
:10153000AE44A1FB024CA0FB0365AEF17F7E3619E1
:1015400055EB0C05A1FB034C4CF10003A0FB021C66
:1015500016EB0C06654153F10003094218BF46F033
:10156000010613F4007F0BD14FEA03314FEA053037
:10157000340341EA155140EA16506FF003020AE0C5
:101580004FEAC3214FEAC520F40241EA555140EA2F
:1015900056506FF0020202EB2E4201EB025585EA33
:1015A000CE710AD05FEA440C18BF24F0004450F119
:1015B000000041F1000120EAD47040F2FE7C624557
:1015C00000D270BDA84214BF4FF080444FF0404499
:1015D000002E08BF0024BEF1806FA8BFA1F1C0415A
:1015E000BDE8704080F282804FF0000001F1C04100
:1015F00001F0004170479EEA0C0F0CEA131518BF6A
:1016000095EA0C0F06D04FF0000081EA030E0EF0B1
:10161000004170BD00F01CF88900013E00F007B8E1
:1016200000F009B84FEA430C5FEA5C5C08D081EA3D
:10163000030100F05BB84FEA410C5FEA5C5CF6D155
:101640004FF00000014970470000FF070000F87FDD
:101650000EF1020E2EF0030E5EF8046B364205D436
:10166000012A43EB030515F5001F12D8012841EBB1
:10167000010C1CF5001F0CD80ED14FEAD17C15F5DA
:10168000001F0CEB4C0C0CF1020C08BF4CEBD37C94
:1016900004E04FF0080C01E04FEAD37C0CEB4C0562
:1016A00026FA05F606F00706B6F1040C06D20EEB94
:1016B000860CBDE870404CF0010C6047DFE80CF090
:1016C000090B02024FF000414FF00000A1F500218C
:1016D00070BD19461046012851EB010418BFD4F51E
:1016E000001484BF002001F0004170BD0808A0F57F
:1016F00000114FEA3101704743004FEAD30C4FEA23
:101700003C0C43401FBF40070CF1605113F0FE4FEB
:1017100070471CF0006F03D100200CF000417047AF
:101720000CF0004343EA507010B540EACC0000F0E2
:1017300072F900BF000000924FEA0001FFF7D6BF28
:101740004FF000414FF00000A1F50021704700006C
:101750004FF47F0C1CEAD0121EBF1CEAD11392EA90
:101760000C0F93EA0C0F00F0858090EA010F48BF40
:1017700042F4807240F4000C41F400002CF07F41F0
:1017800020F07F4000B58142A2EB03020FF2081C5B
:10179000ACEB504EC0F100009EF800E04FEA4E0E58
:1017A00000FB0EFC38BF49004FEA2C1C02F5FA0280
:1017B0000CFB0EF34FEACE1E4FEA112C4FEAC1216B
:1017C0000EEB635E42EB22420EFB0CFC4FEA1C5315
:1017D00000FB03114FEA112C4FEA01310EFB0CFC08
:1017E0004FEADC4C00FB0C11C14228BF09184CEB3E
:1017F00003335DF804EB10EB410143EBC250B2F54B
:101800007C0F38BF704729D512F0F00F1CBF00F1D4
:10181000C04000F000407047008182838485868745
:1018200088898B8C8D8E8F919293959697999A9C9F
:101830009D9FA0A2A3A5A7A8AAACAEB0B2B3B5B70E
:10184000B9BCBEC0C2C5C7C9CCCED1D4D7D9DCDFE4
:10185000E2E6E9ECF0F3F7FAFE0000004FEA400C94
:101860000CF1807CBCF17E4F28BF7047B0F1C040C6
:1018700000F017B990EA010F0CEAD11348BF42F407
:101880008072624538BF634507D213F47F0F16D0CC
:1018900080EA010000F00040704710B500F0BBF88E
:1018A000097EFC3E00F005B880EA010000F000402F
:1018B000704780EA010000F0004000F0F2B812F436
:1018C0007F0F04BF0248704780EA010000F0E9B8CA
:1018D0000000C07FC10DD1F19E0206DB4FEA00235C
:1018E00043F0004323FA02F07047004207D54FEA65
:1018F0004001B1F1FE4F02D24FF00000704710B529
:1019000000F089F849922480002070476FEA200097
:10191000704700004FF47F0C1CEAD0121EBF1CEA77
:10192000D11392EA0C0F93EA0C0F00F0478090EA73
:10193000010F48BF42F480724FF0004C4CEA002087
:101940004CEA012102EB0302A0FB0113A2F5000205
:10195000002918BF43F001035B0028BF4FEA33039F
:1019600042EB22425FEA132C4CEBC2502EBFBCEB81
:10197000436FB2F57C0F70474FEA036CBCF1004F28
:1019800008BF20F00100B2F57C0F38BF70470BD5BF
:1019900082F0FF0212F5803FC8BF704700F1C040DF
:1019A000D8BF00F00040704700F5000C5FEA4C0C17
:1019B00048BF7047B0F1C04000F073B890EA010F23
:1019C0000CEAD11348BF42F48072624538BF6345C8
:1019D00004D280EA010000F00040704710B500F02A
:1019E0001AF800BF8900013E00F007B800F009B8FE
:1019F0005FEA410C5FEA1C6C08D080EA010000F04D
:101A000050B85FEA400C5FEA1C6CF6D14FF0004022
:101A1000A0F5800070470EF1020E2EF0030E5EF866
:101A2000044B244204D44FEA4102B2F17F4F11D853
:101A30004FEA4003B3F17F4F0CD80ED14FEAD07C70
:101A4000B2F17F4F0CEB4C0C0CF1020C08BF4CEBCD
:101A5000D17C04E04FF0080C01E04FEAD17C0CEBA4
:101A60004C0324FA03F404F00704B4F1040C06D286
:101A70000EEB840CBDE810404CF0010C6047DFE831
:101A80000CF0070802024FF00040A0F5800010BDE6
:101A90000846420018BFD2F1807288BF00F00040B3
:101AA00010BDFF2141EAD050C0057047CC1A000894
:101AB00000000020340000006C010008001B00083A
:101AC0003400002094060000880100080000000097
:101AD0000000000000A24A04000000000000000016
:101AE00001020304060708090000000000000000CE
:101AF00001020304010203040607080902040608A0
:0400000508000131BD
:00000001FF
